{
  "_format": "hh-sol-artifact-1",
  "contractName": "BotRegistry",
  "sourceName": "contracts/BotRegistry.sol",
  "abi": [
    {
      "inputs": [
        {
          "internalType": "string",
          "name": "_name",
          "type": "string"
        },
        {
          "internalType": "string",
          "name": "_description",
          "type": "string"
        },
        {
          "internalType": "string",
          "name": "_icon",
          "type": "string"
        },
        {
          "internalType": "string",
          "name": "_agentId",
          "type": "string"
        },
        {
          "internalType": "address",
          "name": "_creator",
          "type": "address"
        }
      ],
      "stateMutability": "nonpayable",
      "type": "constructor"
    },
    {
      "inputs": [
        {
          "internalType": "address",
          "name": "owner",
          "type": "address"
        }
      ],
      "name": "OwnableInvalidOwner",
      "type": "error"
    },
    {
      "inputs": [
        {
          "internalType": "address",
          "name": "account",
          "type": "address"
        }
      ],
      "name": "OwnableUnauthorizedAccount",
      "type": "error"
    },
    {
      "inputs": [],
      "name": "ReentrancyGuardReentrantCall",
      "type": "error"
    },
    {
      "anonymous": false,
      "inputs": [
        {
          "indexed": true,
          "internalType": "address",
          "name": "user",
          "type": "address"
        },
        {
          "indexed": false,
          "internalType": "uint256",
          "name": "amount",
          "type": "uint256"
        },
        {
          "indexed": false,
          "internalType": "uint256",
          "name": "cost",
          "type": "uint256"
        }
      ],
      "name": "CreditsPurchased",
      "type": "event"
    },
    {
      "anonymous": false,
      "inputs": [
        {
          "indexed": true,
          "internalType": "address",
          "name": "user",
          "type": "address"
        },
        {
          "indexed": false,
          "internalType": "uint256",
          "name": "amount",
          "type": "uint256"
        }
      ],
      "name": "CreditsUsed",
      "type": "event"
    },
    {
      "anonymous": false,
      "inputs": [
        {
          "indexed": false,
          "internalType": "string",
          "name": "name",
          "type": "string"
        },
        {
          "indexed": false,
          "internalType": "string",
          "name": "description",
          "type": "string"
        }
      ],
      "name": "MetadataUpdated",
      "type": "event"
    },
    {
      "anonymous": false,
      "inputs": [
        {
          "indexed": true,
          "internalType": "address",
          "name": "previousOwner",
          "type": "address"
        },
        {
          "indexed": true,
          "internalType": "address",
          "name": "newOwner",
          "type": "address"
        }
      ],
      "name": "OwnershipTransferred",
      "type": "event"
    },
    {
      "inputs": [],
      "name": "CREDIT_PRICE",
      "outputs": [
        {
          "internalType": "uint256",
          "name": "",
          "type": "uint256"
        }
      ],
      "stateMutability": "view",
      "type": "function"
    },
    {
      "inputs": [],
      "name": "MAX_CREDITS_PER_PURCHASE",
      "outputs": [
        {
          "internalType": "uint256",
          "name": "",
          "type": "uint256"
        }
      ],
      "stateMutability": "view",
      "type": "function"
    },
    {
      "inputs": [],
      "name": "MIN_CREDITS",
      "outputs": [
        {
          "internalType": "uint256",
          "name": "",
          "type": "uint256"
        }
      ],
      "stateMutability": "view",
      "type": "function"
    },
    {
      "inputs": [
        {
          "internalType": "uint256",
          "name": "creditAmount",
          "type": "uint256"
        }
      ],
      "name": "buyCredits",
      "outputs": [],
      "stateMutability": "payable",
      "type": "function"
    },
    {
      "inputs": [
        {
          "internalType": "address",
          "name": "user",
          "type": "address"
        }
      ],
      "name": "getCreditsBalance",
      "outputs": [
        {
          "internalType": "uint256",
          "name": "",
          "type": "uint256"
        }
      ],
      "stateMutability": "view",
      "type": "function"
    },
    {
      "inputs": [],
      "name": "getTotalSubscribers",
      "outputs": [
        {
          "internalType": "uint256",
          "name": "",
          "type": "uint256"
        }
      ],
      "stateMutability": "view",
      "type": "function"
    },
    {
      "inputs": [],
      "name": "metadata",
      "outputs": [
        {
          "internalType": "string",
          "name": "name",
          "type": "string"
        },
        {
          "internalType": "string",
          "name": "description",
          "type": "string"
        },
        {
          "internalType": "string",
          "name": "icon",
          "type": "string"
        },
        {
          "internalType": "string",
          "name": "agentId",
          "type": "string"
        },
        {
          "internalType": "address",
          "name": "creator",
          "type": "address"
        }
      ],
      "stateMutability": "view",
      "type": "function"
    },
    {
      "inputs": [],
      "name": "owner",
      "outputs": [
        {
          "internalType": "address",
          "name": "",
          "type": "address"
        }
      ],
      "stateMutability": "view",
      "type": "function"
    },
    {
      "inputs": [],
      "name": "renounceOwnership",
      "outputs": [],
      "stateMutability": "nonpayable",
      "type": "function"
    },
    {
      "inputs": [
        {
          "internalType": "uint256",
          "name": "amount",
          "type": "uint256"
        }
      ],
      "name": "spendCredits",
      "outputs": [],
      "stateMutability": "nonpayable",
      "type": "function"
    },
    {
      "inputs": [
        {
          "internalType": "address",
          "name": "",
          "type": "address"
        }
      ],
      "name": "subscribers",
      "outputs": [
        {
          "internalType": "bool",
          "name": "",
          "type": "bool"
        }
      ],
      "stateMutability": "view",
      "type": "function"
    },
    {
      "inputs": [],
      "name": "totalSubscribers",
      "outputs": [
        {
          "internalType": "uint256",
          "name": "",
          "type": "uint256"
        }
      ],
      "stateMutability": "view",
      "type": "function"
    },
    {
      "inputs": [
        {
          "internalType": "address",
          "name": "newOwner",
          "type": "address"
        }
      ],
      "name": "transferOwnership",
      "outputs": [],
      "stateMutability": "nonpayable",
      "type": "function"
    },
    {
      "inputs": [
        {
          "internalType": "address",
          "name": "",
          "type": "address"
        }
      ],
      "name": "userCredits",
      "outputs": [
        {
          "internalType": "uint256",
          "name": "",
          "type": "uint256"
        }
      ],
      "stateMutability": "view",
      "type": "function"
    }
  ],
  "bytecode": "0x6080604052600060095534801561001557600080fd5b50604051611cf0380380611cf083398181016040528101906100379190610443565b80600073ffffffffffffffffffffffffffffffffffffffff168173ffffffffffffffffffffffffffffffffffffffff16036100aa5760006040517f1e4fbdf70000000000000000000000000000000000000000000000000000000081526004016100a1919061053d565b60405180910390fd5b6100b9816101ac60201b60201c565b50600180819055506040518060a001604052808681526020018581526020018481526020018381526020018273ffffffffffffffffffffffffffffffffffffffff16815250600260008201518160000190816101159190610779565b50602082015181600101908161012b9190610779565b5060408201518160020190816101419190610779565b5060608201518160030190816101579190610779565b5060808201518160040160006101000a81548173ffffffffffffffffffffffffffffffffffffffff021916908373ffffffffffffffffffffffffffffffffffffffff160217905550905050505050505061084b565b60008060009054906101000a900473ffffffffffffffffffffffffffffffffffffffff169050816000806101000a81548173ffffffffffffffffffffffffffffffffffffffff021916908373ffffffffffffffffffffffffffffffffffffffff1602179055508173ffffffffffffffffffffffffffffffffffffffff168173ffffffffffffffffffffffffffffffffffffffff167f8be0079c531659141344cd1fd0a4f28419497f9722a3daafe3b4186f6b6457e060405160405180910390a35050565b6000604051905090565b600080fd5b600080fd5b600080fd5b600080fd5b6000601f19601f8301169050919050565b7f4e487b7100000000000000000000000000000000000000000000000000000000600052604160045260246000fd5b6102d78261028e565b810181811067ffffffffffffffff821117156102f6576102f561029f565b5b80604052505050565b6000610309610270565b905061031582826102ce565b919050565b600067ffffffffffffffff8211156103355761033461029f565b5b61033e8261028e565b9050602081019050919050565b60005b8381101561036957808201518184015260208101905061034e565b60008484015250505050565b60006103886103838461031a565b6102ff565b9050828152602081018484840111156103a4576103a3610289565b5b6103af84828561034b565b509392505050565b600082601f8301126103cc576103cb610284565b5b81516103dc848260208601610375565b91505092915050565b600073ffffffffffffffffffffffffffffffffffffffff82169050919050565b6000610410826103e5565b9050919050565b61042081610405565b811461042b57600080fd5b50565b60008151905061043d81610417565b92915050565b600080600080600060a0868803121561045f5761045e61027a565b5b600086015167ffffffffffffffff81111561047d5761047c61027f565b5b610489888289016103b7565b955050602086015167ffffffffffffffff8111156104aa576104a961027f565b5b6104b6888289016103b7565b945050604086015167ffffffffffffffff8111156104d7576104d661027f565b5b6104e3888289016103b7565b935050606086015167ffffffffffffffff8111156105045761050361027f565b5b610510888289016103b7565b92505060806105218882890161042e565b9150509295509295909350565b61053781610405565b82525050565b6000602082019050610552600083018461052e565b92915050565b600081519050919050565b7f4e487b7100000000000000000000000000000000000000000000000000000000600052602260045260246000fd5b600060028204905060018216806105aa57607f821691505b6020821081036105bd576105bc610563565b5b50919050565b60008190508160005260206000209050919050565b60006020601f8301049050919050565b600082821b905092915050565b6000600883026106257fffffffffffffffffffffffffffffffffffffffffffffffffffffffffffffffff826105e8565b61062f86836105e8565b95508019841693508086168417925050509392505050565b6000819050919050565b6000819050919050565b600061067661067161066c84610647565b610651565b610647565b9050919050565b6000819050919050565b6106908361065b565b6106a461069c8261067d565b8484546105f5565b825550505050565b600090565b6106b96106ac565b6106c4818484610687565b505050565b5b818110156106e8576106dd6000826106b1565b6001810190506106ca565b5050565b601f82111561072d576106fe816105c3565b610707846105d8565b81016020851015610716578190505b61072a610722856105d8565b8301826106c9565b50505b505050565b600082821c905092915050565b600061075060001984600802610732565b1980831691505092915050565b6000610769838361073f565b9150826002028217905092915050565b61078282610558565b67ffffffffffffffff81111561079b5761079a61029f565b5b6107a58254610592565b6107b08282856106ec565b600060209050601f8311600181146107e357600084156107d1578287015190505b6107db858261075d565b865550610843565b601f1984166107f1866105c3565b60005b82811015610819578489015182556001820191506020850194506020810190506107f4565b868310156108365784890151610832601f89168261073f565b8355505b6001600288020188555050505b505050505050565b6114968061085a6000396000f3fe6080604052600436106100dd5760003560e01c8063715018a61161007f578063a67f275511610059578063a67f2755146102a7578063a9e6f7c3146102d2578063b25ae32c146102fb578063f2fde38b14610326576100dd565b8063715018a61461023a5780638da5cb5b146102515780639fc018161461027c576100dd565b80632209df89116100bb5780632209df8914610166578063392f37e914610191578063419ea2a9146101c05780635745ae28146101fd576100dd565b80630c4dfe3f146100e257806315e2475f146100fe57806320babb9214610129575b600080fd5b6100fc60048036038101906100f79190610da7565b61034f565b005b34801561010a57600080fd5b50610113610722565b6040516101209190610de3565b60405180910390f35b34801561013557600080fd5b50610150600480360381019061014b9190610e5c565b610728565b60405161015d9190610de3565b60405180910390f35b34801561017257600080fd5b5061017b610740565b6040516101889190610de3565b60405180910390f35b34801561019d57600080fd5b506101a6610745565b6040516101b7959493929190610f28565b60405180910390f35b3480156101cc57600080fd5b506101e760048036038101906101e29190610e5c565b6109a9565b6040516101f49190610de3565b60405180910390f35b34801561020957600080fd5b50610224600480360381019061021f9190610e5c565b6109f2565b6040516102319190610fb2565b60405180910390f35b34801561024657600080fd5b5061024f610a12565b005b34801561025d57600080fd5b50610266610a26565b6040516102739190610fcd565b60405180910390f35b34801561028857600080fd5b50610291610a4f565b60405161029e9190610de3565b60405180910390f35b3480156102b357600080fd5b506102bc610a59565b6040516102c99190610de3565b60405180910390f35b3480156102de57600080fd5b506102f960048036038101906102f49190610da7565b610a5f565b005b34801561030757600080fd5b50610310610b3a565b60405161031d9190610de3565b60405180910390f35b34801561033257600080fd5b5061034d60048036038101906103489190610e5c565b610b44565b005b610357610bca565b601e81101561039b576040517f08c379a000000000000000000000000000000000000000000000000000000000815260040161039290611034565b60405180910390fd5b6103e88111156103e0576040517f08c379a00000000000000000000000000000000000000000000000000000000081526004016103d7906110a0565b60405180910390fd5b6000655af3107a4000826103f491906110ef565b905080341015610439576040517f08c379a00000000000000000000000000000000000000000000000000000000081526004016104309061117d565b60405180910390fd5b81600860003373ffffffffffffffffffffffffffffffffffffffff1673ffffffffffffffffffffffffffffffffffffffff1681526020019081526020016000206000828254610488919061119d565b92505081905550803411156105505760003373ffffffffffffffffffffffffffffffffffffffff1682346104bc91906111d1565b6040516104c890611236565b60006040518083038185875af1925050503d8060008114610505576040519150601f19603f3d011682016040523d82523d6000602084013e61050a565b606091505b505090508061054e576040517f08c379a000000000000000000000000000000000000000000000000000000000815260040161054590611297565b60405180910390fd5b505b600061055a610a26565b73ffffffffffffffffffffffffffffffffffffffff168260405161057d90611236565b60006040518083038185875af1925050503d80600081146105ba576040519150601f19603f3d011682016040523d82523d6000602084013e6105bf565b606091505b5050905080610603576040517f08c379a00000000000000000000000000000000000000000000000000000000081526004016105fa90611303565b60405180910390fd5b3373ffffffffffffffffffffffffffffffffffffffff167ffb82fc1c5adf84899709e87563b69dd5f4ac33320f1c60dbca744bec717eb90f848460405161064b929190611323565b60405180910390a2600760003373ffffffffffffffffffffffffffffffffffffffff1673ffffffffffffffffffffffffffffffffffffffff16815260200190815260200160002060009054906101000a900460ff16610715576001600760003373ffffffffffffffffffffffffffffffffffffffff1673ffffffffffffffffffffffffffffffffffffffff16815260200190815260200160002060006101000a81548160ff0219169083151502179055506009600081548092919061070f9061134c565b91905055505b505061071f610c10565b50565b60095481565b60086020528060005260406000206000915090505481565b601e81565b6002806000018054610756906113c3565b80601f0160208091040260200160405190810160405280929190818152602001828054610782906113c3565b80156107cf5780601f106107a4576101008083540402835291602001916107cf565b820191906000526020600020905b8154815290600101906020018083116107b257829003601f168201915b5050505050908060010180546107e4906113c3565b80601f0160208091040260200160405190810160405280929190818152602001828054610810906113c3565b801561085d5780601f106108325761010080835404028352916020019161085d565b820191906000526020600020905b81548152906001019060200180831161084057829003601f168201915b505050505090806002018054610872906113c3565b80601f016020809104026020016040519081016040528092919081815260200182805461089e906113c3565b80156108eb5780601f106108c0576101008083540402835291602001916108eb565b820191906000526020600020905b8154815290600101906020018083116108ce57829003601f168201915b505050505090806003018054610900906113c3565b80601f016020809104026020016040519081016040528092919081815260200182805461092c906113c3565b80156109795780601f1061094e57610100808354040283529160200191610979565b820191906000526020600020905b81548152906001019060200180831161095c57829003601f168201915b5050505050908060040160009054906101000a900473ffffffffffffffffffffffffffffffffffffffff16905085565b6000600860008373ffffffffffffffffffffffffffffffffffffffff1673ffffffffffffffffffffffffffffffffffffffff168152602001908152602001600020549050919050565b60076020528060005260406000206000915054906101000a900460ff1681565b610a1a610c19565b610a246000610ca0565b565b60008060009054906101000a900473ffffffffffffffffffffffffffffffffffffffff16905090565b655af3107a400081565b6103e881565b80600860003373ffffffffffffffffffffffffffffffffffffffff1673ffffffffffffffffffffffffffffffffffffffff168152602001908152602001600020541015610ae1576040517f08c379a0000000000000000000000000000000000000000000000000000000008152600401610ad890611440565b60405180910390fd5b80600860003373ffffffffffffffffffffffffffffffffffffffff1673ffffffffffffffffffffffffffffffffffffffff1681526020019081526020016000206000828254610b3091906111d1565b9250508190555050565b6000600954905090565b610b4c610c19565b600073ffffffffffffffffffffffffffffffffffffffff168173ffffffffffffffffffffffffffffffffffffffff1603610bbe5760006040517f1e4fbdf7000000000000000000000000000000000000000000000000000000008152600401610bb59190610fcd565b60405180910390fd5b610bc781610ca0565b50565b600260015403610c06576040517f3ee5aeb500000000000000000000000000000000000000000000000000000000815260040160405180910390fd5b6002600181905550565b60018081905550565b610c21610d64565b73ffffffffffffffffffffffffffffffffffffffff16610c3f610a26565b73ffffffffffffffffffffffffffffffffffffffff1614610c9e57610c62610d64565b6040517f118cdaa7000000000000000000000000000000000000000000000000000000008152600401610c959190610fcd565b60405180910390fd5b565b60008060009054906101000a900473ffffffffffffffffffffffffffffffffffffffff169050816000806101000a81548173ffffffffffffffffffffffffffffffffffffffff021916908373ffffffffffffffffffffffffffffffffffffffff1602179055508173ffffffffffffffffffffffffffffffffffffffff168173ffffffffffffffffffffffffffffffffffffffff167f8be0079c531659141344cd1fd0a4f28419497f9722a3daafe3b4186f6b6457e060405160405180910390a35050565b600033905090565b600080fd5b6000819050919050565b610d8481610d71565b8114610d8f57600080fd5b50565b600081359050610da181610d7b565b92915050565b600060208284031215610dbd57610dbc610d6c565b5b6000610dcb84828501610d92565b91505092915050565b610ddd81610d71565b82525050565b6000602082019050610df86000830184610dd4565b92915050565b600073ffffffffffffffffffffffffffffffffffffffff82169050919050565b6000610e2982610dfe565b9050919050565b610e3981610e1e565b8114610e4457600080fd5b50565b600081359050610e5681610e30565b92915050565b600060208284031215610e7257610e71610d6c565b5b6000610e8084828501610e47565b91505092915050565b600081519050919050565b600082825260208201905092915050565b60005b83811015610ec3578082015181840152602081019050610ea8565b60008484015250505050565b6000601f19601f8301169050919050565b6000610eeb82610e89565b610ef58185610e94565b9350610f05818560208601610ea5565b610f0e81610ecf565b840191505092915050565b610f2281610e1e565b82525050565b600060a0820190508181036000830152610f428188610ee0565b90508181036020830152610f568187610ee0565b90508181036040830152610f6a8186610ee0565b90508181036060830152610f7e8185610ee0565b9050610f8d6080830184610f19565b9695505050505050565b60008115159050919050565b610fac81610f97565b82525050565b6000602082019050610fc76000830184610fa3565b92915050565b6000602082019050610fe26000830184610f19565b92915050565b7f416d6f756e742062656c6f77206d696e696d756d000000000000000000000000600082015250565b600061101e601483610e94565b915061102982610fe8565b602082019050919050565b6000602082019050818103600083015261104d81611011565b9050919050565b7f416d6f756e742061626f7665206d6178696d756d000000000000000000000000600082015250565b600061108a601483610e94565b915061109582611054565b602082019050919050565b600060208201905081810360008301526110b98161107d565b9050919050565b7f4e487b7100000000000000000000000000000000000000000000000000000000600052601160045260246000fd5b60006110fa82610d71565b915061110583610d71565b925082820261111381610d71565b9150828204841483151761112a576111296110c0565b5b5092915050565b7f496e73756666696369656e74207061796d656e74000000000000000000000000600082015250565b6000611167601483610e94565b915061117282611131565b602082019050919050565b600060208201905081810360008301526111968161115a565b9050919050565b60006111a882610d71565b91506111b383610d71565b92508282019050808211156111cb576111ca6110c0565b5b92915050565b60006111dc82610d71565b91506111e783610d71565b92508282039050818111156111ff576111fe6110c0565b5b92915050565b600081905092915050565b50565b6000611220600083611205565b915061122b82611210565b600082019050919050565b600061124182611213565b9150819050919050565b7f526566756e64206661696c656400000000000000000000000000000000000000600082015250565b6000611281600d83610e94565b915061128c8261124b565b602082019050919050565b600060208201905081810360008301526112b081611274565b9050919050565b7f5472616e7366657220746f206f776e6572206661696c65640000000000000000600082015250565b60006112ed601883610e94565b91506112f8826112b7565b602082019050919050565b6000602082019050818103600083015261131c816112e0565b9050919050565b60006040820190506113386000830185610dd4565b6113456020830184610dd4565b9392505050565b600061135782610d71565b91507fffffffffffffffffffffffffffffffffffffffffffffffffffffffffffffffff8203611389576113886110c0565b5b600182019050919050565b7f4e487b7100000000000000000000000000000000000000000000000000000000600052602260045260246000fd5b600060028204905060018216806113db57607f821691505b6020821081036113ee576113ed611394565b5b50919050565b7f496e73756666696369656e742063726564697473000000000000000000000000600082015250565b600061142a601483610e94565b9150611435826113f4565b602082019050919050565b600060208201905081810360008301526114598161141d565b905091905056fea26469706673582212204e5c5dd357d1c3a13fe6c9838ac6d53d2fd1863050cc4b3441b8e4412221be4a64736f6c634300081b0033",
  "linkReferences": {},
  "deployedLinkReferences": {}
}